:100000000C9434020C94DD080C94B6080C945C0239
:100010000C945C020C945C020C945C020C945C02E8
:100020000C945C020C945C020C945C020C945C02D8
:100030000C945C020C945C020C945C020C945C02C8
:100040000C946C080C945C020C942A090C9404091E
:100050000C945C020C945C020C945C020C945C02A8
:100060000C945C020C945C0200000000230026004B
:100070002900AAAAAA06AA00000020AAAA024CAA3D
:1000800006AAAAAAAAAAAA4B4F494DAAAA074A0495
:100090004E14AAAAAAAAAAAAAAAAAAAAAAAAAAAAB2
:1000A000AAAA3D0121231333090D2B1D461C3B3CFD
:1000B00044AA43260C12111536320A2D2E1E1A2C74
:1000C0002A193903312235293425160E243A45419F
:1000D0004247AA2717370B0F2F1B1F3F05AAAAAAB3
:1000E000AAAAAAAAAAAAAAAAAAAAAAAAAAAAAAAA70
:1000F000AAAAAAAAAAAAAAAAAAAAAAAAAA47AAAAC3
:10010000AAAA0000000000000000AAAAAA06AA00ED
:10011000000020AAAA024CAA06AAAAAAAAAAAA4B26
:100120004F494DAAAA074A044E14AAAAAAAAAAAAE3
:10013000AAAAAAAAAAAAAAAAAAAA3D012123133353
:10014000090D2B1D461C3B3C44AA43260C121115DD
:1001500036320A2D2E1E1A2C2A193903312235293E
:100160003425160E243A45414247AA2717370B0F6C
:100170002F1B1F3F05AAAAAAAAAAAAAAAAAAAAAA84
:10018000AAAAAAAAAAAAAAAAAAAAAAAAAAAAAAAACF
:10019000AAAAAAAAAA47AAAAAAAA0000000000001E
:1001A0000000AAAAAAAAAAAAAAAAAAAAAAAAAAAA03
:1001B000AAAAAAAAAAAAAAAAAAAAAAAAAA07AAAA42
:1001C0000414AAAAAAAAAAAAAAAAAAAAAAAAAAAACB
:1001D000AAAA3DAAAA231333090D2B1DAAAAAAAACB
:1001E000AAAAAA260C12111536320A2D2E1E1A2C76
:1001F0002A193903312235293825160E24AAAAAA2C
:10020000AAAAAAAAAAAAAAAAAAAAAAAAAAAAAAAA4E
:10021000AAAAAAAAAAAAAAAAAAAAAAAAAAAAAAAA3E
:10022000AAAAAAAAAAAAAAAAAAAAAAAAAAAAAAAA2E
:10023000AAAA0000000000000000AAAAAAAAAAAA6E
:10024000AAAAAAAAAAAAAAAAAAAAAAAAAAAAAAAA0E
:10025000AAAAAAAAAA07AAAA0414AAAAAAAAAAAADD
:10026000AAAAAAAAAAAAAAAAAAAA3DAAAA231333F0
:10027000090D2B1DAAAAAAAAAAAAAA260C12111510
:1002800036320A2D2E1E1A2C2A193903312235290D
:100290003825160E24AAAAAAAAAAAAAAAAAAAAAA6B
:1002A000AAAAAAAAAAAAAAAAAAAAAAAAAAAAAAAAAE
:1002B000AAAAAAAAAAAAAAAAAAAAAAAAAAAAAAAA9E
:1002C000AAAAAAAAAAAAAAAAAAAA0000000000008A
:1002D000000000000000240027002A0000000000A9
:1002E000250028002B000404040404040404020272
:1002F00002020202030303030303010204081020A5
:1003000040800102040810200102040810200000AF
:1003100000080002010000030407000000000000C4
:1003200000001912181415BB161117131A4040209B
:10033000200804020277017E0258031206590714AE
:1003400008110A8410761B661C0D1D5A1E291F7089
:1003500020692172227A236B24732574266C2775F9
:10036000287D29712A792C7B2D7C2E0F3F45301654
:10037000311E32263325342E3536363D373E38464B
:1003800039523A413B4E3C493D4A3E0E401C4132B7
:10039000422143234424452B463447334843493BB9
:1003A0004A424B4B4C3A4D314E444F4D5015512D16
:1003B000521B532C543C552A561D57225835591A56
:1003C0005A4C5B5D5C545D5B5E555F618B056106FD
:1003D0006204630C6403650B6683670A680169093C
:1003E0006A786B076C086D106E186F20702871307A
:1003F00072387340744875507657775F786D6051E6
:100400009113926A9364946795F296F19763986258
:10041000995FA012BB7C041409110B1F0C270D2F30
:100420000E7E0F6C1169127D137A146B157416759C
:100430001772187019711A5A2B4A2F4D79157A3B79
:100440007B347C237D327E217F508048812B82400B
:100450008310843A853886308728882089188A371F
:100460008C3F8D5E90005C0911241FBECFEFD8E059
:10047000DEBFCDBF11E0A0E0B1E0E0E6F6E102C0F2
:1004800005900D92A831B107D9F721E0A8E1B1E0BC
:1004900001C01D92AF3FB207E1F712E0C4E3D2E022
:1004A00004C02197FE010E94280BC333D107C9F76E
:1004B0000E9489090C942E0B0C9400008230D8F411
:1004C000E82FF0E0EE0FFF1FEF5FFE4F2AE236E06D
:1004D00031832083813041F0809169008C7F82607C
:1004E00080936900E89A089580916900837F88600D
:1004F00080936900E99A0895FC01538D448D252F5E
:1005000030E0842F90E0821B930B541710F0CF96AD
:10051000089501970895FC01918D828D981761F0DF
:10052000A28DAE0FBF2FB11D5D968C91928D9F5FF6
:100530009F73928F90E008958FEF9FEF0895FC01D5
:10054000918D828D981731F0828DE80FF11D858D88
:1005500090E008958FEF9FEF0895FC01918D228D1B
:10056000892F90E0805C9F4F821B91098F739927A0
:100570000895FC01A48DA80FB92FB11DA35ABF4F38
:100580002C91848D90E001968F739927848FA68992
:10059000B7892C93A089B1898C91837080648C93E6
:1005A000938D848D981306C00288F389E02D808195
:1005B0008F7D80830895EF92FF920F931F93CF93C7
:1005C000DF93EC0181E0888F9B8D8C8D98131AC08E
:1005D000E889F989808185FF15C09FB7F894EE8975
:1005E000FF896083E889F9898081837080648083D2
:1005F0009FBF81E090E0DF91CF911F910F91FF901D
:10060000EF900895F62E0B8D10E00F5F1F4F0F73C4
:100610001127E02E8C8D8E110CC00FB607FCFACF7F
:10062000E889F989808185FFF5CFCE010E94B90262
:10063000F1CFEB8DEC0FFD2FF11DE35AFF4FF08250
:100640009FB7F8940B8FEA89FB8980818062CFCFB6
:10065000CF93DF93EC01888D8823B9F0AA89BB89F9
:10066000E889F9898C9185FD03C0808186FD0DC0E4
:100670000FB607FCF7CF8C9185FFF2CF808185FF05
:10068000EDCFCE010E94B902E9CFDF91CF9108955D
:1006900082E691E00E94AD0221E0892B09F420E07E
:1006A000822F089580E090E0892B29F00E94480372
:1006B00081110C9400000895833081F028F481307A
:1006C00099F08230A9F008958730A9F08830C9F0F8
:1006D0008430B1F4809180008F7D03C080918000D0
:1006E0008F7780938000089584B58F7784BD0895B7
:1006F00084B58F7DFBCF8091B0008F778093B00061
:1007000008958091B0008F7DF9CF1F93CF93DF9331
:10071000282F30E0F901E25FFC4F8491F901E650A7
:10072000FD4FD491F901EA51FD4FC491CC23A9F0BA
:10073000162F81110E945C03EC2FF0E0EE0FFF1FDB
:10074000E452FD4FA591B4918FB7F894EC9111113B
:1007500008C0D095DE23DC938FBFDF91CF911F912E
:100760000895DE2BF8CFCF93DF9390E0FC01E650A5
:10077000FD4F24918A519D4FFC0184918823D1F033
:1007800090E0880F991FFC01EE52FD4FA591B491A6
:10079000FC01E452FD4FC591D491623071F49FB7D2
:1007A000F8943C91822F809583238C93E8812E2BA3
:1007B00028839FBFDF91CF9108958FB7F894EC9174
:1007C0002E2B2C938FBFF6CF3FB7F89480913B012F
:1007D00090913C01A0913D01B0913E0126B5A89BAE
:1007E00005C02F3F19F00196A11DB11D3FBFBA2FC3
:1007F000A92F982F8827BC01CD01620F711D811D83
:10080000911D42E0660F771F881F991F4A95D1F707
:1008100008950895AF92BF92CF92DF92EF92FF9228
:100820000F931F93CF93DF936C017B018B01040F18
:10083000151FEB015E01AE18BF08C017D10759F0B4
:100840006991D601ED91FC910190F081E02DC601F6
:100850000995892B79F7C501DF91CF911F910F91F0
:10086000FF90EF90DF90CF90BF90AF9008951092DF
:100870002C0110922B0110922A0110922901109242
:1008800057011092560110922801109245011092C2
:10089000400110922701089590912C019F5F96309E
:1008A00008F090E020912B01291751F0E92FF0E09A
:1008B000EF5DFE4F808390932C0181E090E00895DE
:1008C0008CEF9FEF0895CF93DF9380932001809367
:1008D0001F011092280110921E0180912701806C47
:1008E0008093270180912A0187FD0DC080912A0104
:1008F00080FF09C08091290180931D01809127010B
:1009000080618093270180912D01823009F441C0DC
:10091000833061F4E99881E090E0880F991FFC0131
:10092000EF5FFE4F89E094E091838083D0912E01A8
:1009300061E08D2F0E94850361E08D2F0E94B3033B
:10094000C0912D0161E08C2F0E94850361E08C2F06
:100950000E94B30383E290E00197F1F760E08C2FEF
:100960000E9485038BEE90E00197F1F760E08D2FF8
:100970000E94850362E08C2F0E94B30380E0C230A6
:1009800021F08FEFC33009F481E0DF91CF910C9417
:100990005E02E89890E080E0C0CF90912B018091BA
:1009A0002C01891799F180912A01816080932A0195
:1009B00080912A0187FD2DC08091270187FD29C0E4
:1009C000109229012FEF3FEF9F5F963008F090E0E3
:1009D000E92FF0E0EF5DFE4F2F3F320771F42081E9
:1009E00030E090932B0180912C018913EDCF822F61
:1009F0000E94630481E090E0089580818B3BB9F709
:100A0000809129018F5F80932901EBCF8EEF9FEFBB
:100A100008958AE79FEF08958DEE0E944C048BEBBA
:100A20000E944C04809140010E944C048BEB0E9478
:100A30004C04892B11F00C94CD0408950F931F934F
:100A4000CF93DF931091610180916001181B17FD16
:100A50001C5F01E0133064F580915701A0915601AD
:100A60008A1B87FD885F882319F180915701A81799
:100A7000F9F0AF5FA83008F0A0E0A0935601B0E015
:100A8000AA0FBB1FAA5BBE4FCD91DC9111978D9130
:100A90009C9192FDC0C02C2FCA3A20F08C2F815F10
:100AA000823010F494FF0AC0DD27209709F0B5C00A
:100AB000812FDF91CF911F910F9108958091450172
:100AC00095FF18C0806880934501D0E0C0E093FF97
:100AD0001EC0FE01ED5EFB4FE4912E130DC0CC5EF7
:100AE000DB4FFE01C491D0E02097D1F48091450105
:100AF000D82BDBCF8F77E7CF2296C235D10549F7C8
:100B0000D0E0C0E0F3CF2296CE3DD105C9F3FE017F
:100B1000EB5CFC4FE4912E13F6CFCA5CDC4FE1CFC7
:100B200080914501FE01C430D10508F049C0EF5B5A
:100B3000FE4F87FF04C01082CBEBD0E01BC090813A
:100B40009130D1F30083C230D105A1F1C330D1057A
:100B500041F182E090914001292F282369F12091F1
:100B600045018095892380934001206820934501A9
:100B70000E940C058091450187FF04C090913F01C0
:100B800093FD65C09E01205231092134310508F4DE
:100B900040C0CB38D10509F43CC081608093450149
:100BA000A5CF84FF05C08F7E8093450184E0D2CF1E
:100BB0008061FACF81E0CECF892B80934001D8CFDE
:100BC0003697E830F10598F4E35DFC4FE49187FF38
:100BD00005C0E095E823E0934501CCCF9E2F9823F4
:100BE00021F090913F0197FDA7CFE82BF4CFFE01B4
:100BF000B097EB30F10508F0BDCF9091400191FF27
:100C000002C086FFB7CFEE5DFC4FE491CE2FD0E05F
:100C1000B1CF8E7FC3CFC6E0D0E0CE0199278B3B0A
:100C2000910509F417CF892B09F414CF8091610144
:100C30008F5F84300CF080E0E82FEE0FFF0BE85A56
:100C4000FE4FD183C083809361011F5F03CFCBEB45
:100C5000D0E0E3CFCF92DF92EF92FF920F931F93FA
:100C6000CF93DF938091270186FF74C08091280184
:100C70008F5F80932801809128018A3048F4823068
:100C800098F560E0813009F448C010922801C4C092
:100C90008B3009F44EC0E8F18C30B9F780911F0118
:100CA0008E3E69F080911F018E3F49F080911F01B7
:100CB00080931801809127018260809327018091A1
:100CC00027018F7B8093270180912A0187FF3EC0F7
:100CD00080912A018F7780932A018091270184FDDA
:100CE000D4CF0E94CD04D1CFC0912001C1706C2F10
:100CF00080912E010E94850380911E01C80FC09330
:100D00001E018091200190E09595879580932001A8
:100D100083C060911E016095617080912E01DF910A
:100D2000CF911F910F91FF90EF90DF90CF900C9497
:100D3000850362E080912E01DF91CF911F910F9189
:100D4000FF90EF90DF90CF900C94B30380912A0135
:100D50008E7FC1CF20912E0130E0F901E25FFC4F80
:100D60008491F901E650FD4FD491F901EA51FD4F0C
:100D7000C491CC2379F081110E945C03EC2FF0E048
:100D8000EE0FFF1FE859FF4FA591B491EC91ED23B1
:100D900081E009F480E09FB7F894409137015091C9
:100DA00038016091390170913A019FBF009119019A
:100DB00010911A0120911B0130911C016A017B01E5
:100DC000C01AD10AE20AF30A970186010B3F110506
:100DD0002105310520F01092280110922001409346
:100DE000190150931A0160931B0170931C0190919B
:100DF00028019F5F90932801909128019A30A8F4D0
:100E0000923028F5913009F040CF10921E01809168
:100E10002701806880932701DF91CF911F910F9167
:100E2000FF90EF90DF90CF9008959A3019F19B30AA
:100E300009F02BCF80911E018D3F48F18EEF0E946B
:100E4000630480912A01806880932A011ECF9091CB
:100E50001E01980F90931E012091200130E03595DE
:100E600027952093200190E0811190E88091200146
:100E7000892B4CCF90911E01917090931E019091FF
:100E80001E018913C9CF8DEF80931E01C5CF8091BC
:100E900020018E3F29F0909127019D7F909327019B
:100EA0009091270194FF02C0803F70F0909127013C
:100EB00092FD91C08E3E09F477C0E8F48A3A09F4B5
:100EC0007FC020F4882359F186E02CC0803E09F4CD
:100ED0007BC0813EC9F78091270182FD1AC087E05F
:100EE00080931D0180912701846080932701809168
:100EF00027018F7D0CC08C3F09F44EC060F4803F09
:100F000019F781E080931D01809127018062809311
:100F1000270180E007C08E3FA9F18F3FA9F60E940C
:100F200037048CE081FF05C090911D019150909392
:100F30001D0190911D01191614F482FF1EC090919D
:100F400057019F5F983008F090E0209156012917D3
:100F5000A1F020912001E92FF0E030E0EE0FFF1F1B
:100F6000EA5BFE4F3183208340912701208131814C
:100F7000342B3183208390935701807171F18091DC
:100F80001F015DCF8091270181FFC3CF80911801A0
:100F900080931F0180E1C6CF10921D01109227019E
:100FA00010922A018EE0BECF9091270191FF0AC0D6
:100FB000909118019E3E31F080931F0184E1B2CFE1
:100FC00010921D0184E0AECF81E080931D018091DD
:100FD000270188609CCF82E0A5CF80911D01181663
:100FE0000CF453CE80912701837C809327011092CB
:100FF0001D01809127018F778093270172CE0F9377
:101000001F93CF93DF93C82F8F7D8851883020F0B6
:1010100088EB8C0F883078F4C85161E08BE00E9437
:101020008503C03588F060E08BE0DF91CF911F91A0
:101030000F910C94850380EC8C0F883090F7C0538F
:1010400061E08BE00E94850305E010E0D0E0C8017C
:101050000597BE0102C0759567958A95E2F76170A4
:10106000802F0E9485030F5F1F4F0B30110579F70A
:1010700061E084E00E94850360E084E00E948503D3
:10108000D2CF60E082E00E94850361E08DE00E94A3
:10109000850361E084E00E94850360E08DE00E94AA
:1010A000850360E084E00E94850361E082E00E94A5
:1010B000850310924001809145018F7E8093450108
:1010C0000E940C051092310110922F0110923001F4
:1010D00081E08093000108951F920F920FB60F9246
:1010E00011242F933F938F939F93AF93BF9380913E
:1010F000370190913801A0913901B0913A013091B6
:10110000360123E0230F2D3758F50196A11DB11D9F
:10111000209336018093370190933801A0933901D1
:10112000B0933A0180913B0190913C01A0913D0127
:10113000B0913E010196A11DB11D80933B0190939A
:101140003C01A0933D01B0933E01BF91AF919F91AF
:101150008F913F912F910F900FBE0F901F90189578
:1011600026E8230F0296A11DB11DD2CF1F920F9228
:101170000FB60F9211242F933F934F935F936F936A
:101180007F938F939F93AF93BF93EF93FF93E091E0
:101190000301F09104010995FF91EF91BF91AF9187
:1011A0009F918F917F916F915F914F913F912F917F
:1011B0000F900FBE0F901F9018951F920F920FB6B1
:1011C0000F9211242F933F934F935F936F937F93CD
:1011D0008F939F93AF93BF93EF93FF93E0910101A0
:1011E000F09102010995FF91EF91BF91AF919F910D
:1011F0008F917F916F915F914F913F912F910F90C0
:101200000FBE0F901F9018951F920F920FB60F925E
:1012100011242F933F934F935F936F937F938F93FB
:101220009F93AF93BF93EF93FF9382E691E00E9469
:10123000B902FF91EF91BF91AF919F918F917F91F3
:101240006F915F914F913F912F910F900FBE0F9033
:101250001F9018951F920F920FB60F9211242F9383
:101260008F939F93EF93FF93E0917201F09173013D
:101270008081E0917801F091790182FD1BC090811D
:1012800080917B018F5F8F7320917C01821741F0E9
:10129000E0917B01F0E0EE59FE4F958F80937B014A
:1012A000FF91EF919F918F912F910F900FBE0F9013
:1012B0001F9018958081F4CFE2E6F1E0138212824C
:1012C00088EE93E0A0E0B0E084839583A683B783A3
:1012D00089E091E09183808385EC90E09587848715
:1012E00084EC90E09787868780EC90E0918B808BF0
:1012F00081EC90E0938B828B82EC90E0958B848BD9
:1013000086EC90E0978B868B118E128E138E148E46
:101310000895789484B5826084BD84B5816084BD6D
:1013200085B5826085BD85B5816085BD80916E0083
:10133000816080936E0010928100809181008260B4
:1013400080938100809181008160809381008091F1
:1013500080008160809380008091B10084608093E0
:10136000B1008091B00081608093B00080917A00DC
:10137000846080937A0080917A00826080937A0002
:1013800080917A00816080937A0080917A008068F1
:1013900080937A001092C1000E9437048CE0809301
:1013A0002E0183E080932D0162E00E94B30362E08E
:1013B0008CE00E94B30381E00E945E0280913F01B5
:1013C0008068877F80933F0182E790E090933401AB
:1013D00080933301C5E061E08C2F0E94B303CF5F9F
:1013E000CB30C9F761E08BE00E94B30361E084E099
:1013F0000E94B30361E082E00E94B30361E08DE0EC
:101400000E94B30361E082E00E94B30361E08EE0DA
:101410000E94B30360E08EE00E9485030E944108B1
:10142000C0E0D0E00E941E05882309F455C00E9448
:101430001E0550E040E0882379F0E0916001EF5F05
:10144000E43008F0E0E0E0936001F0E0EE0FFF1F11
:10145000E85AFE4F4081518150933501642F8091AD
:10146000000110E0823099F4709135012091330130
:1014700030913401CA019927F901E853FE4F76FDF6
:1014800003C0205D3E4FF901E80FF91F14918091D0
:101490000001813079F420913501809133019091E0
:1014A0003401FA01FF2726FF02C088569F4FE80F3C
:1014B000F91F14916A3F61F06430F1F480913501B5
:1014C00087FF15C01092320160E08EE00E94850314
:1014D00061E082E00E948503209709F4A3CF0E9477
:1014E0004803882309F49ECF0E9400009BCF81E02F
:1014F0008093320161E0E9CF6C3671F40E944108BB
:101500001AEA8091350187FD58C082E0809300017E
:1015100081E08093400146C06330C9F5809131017C
:1015200091E089278093310161E082E00E94850388
:1015300086E00E94FF070E94E4034B015C0184E601
:10154000C82ED12CE12CF12C0E94E40368197909F2
:101550008A099B09683E734081059105A8F321E043
:10156000C21AD108E108F10888EE880E83E0981EBF
:10157000A11CB11CC114D104E104F10429F760E0FD
:1015800082E00E94850386E00E94FF07A1CF6B36B0
:1015900089F48091350187FD10C081E080930001BE
:1015A00010924001809145018F7E809345010E94F9
:1015B0000C0503C06C3609F4A4CF1A3A09F488CF9D
:1015C000103538F1105580913001811104C080919F
:1015D0002F0161E0811160E082E00E94850380E0DC
:1015E0000E94FF0761E082E00E948503812F0E9434
:1015F000FF078091350187FF0CC060912F0182E0C9
:101600000E94850380E00E94FF0761E082E00E9463
:1016100085038091350186FF07C0111105C081E067
:101620008093300180932F018091350187FF0CC09A
:1016300060E082E00E948503111106C01092300123
:1016400010922F01812FA0CF1A3A09F441CFFACF7F
:10165000EE0FFF1F0590F491E02D0994F894FFCF51
:10166000010904090400000000DB020A047C0228CE
:0816700003AD028B029F020092
:00000001FF
