:100000000C9464030C943D0A0C94160A0C948C0313
:100010000C948C030C948C030C948C030C948C0324
:100020000C948C030C948C030C948C030C948C0314
:100030000C948C030C948C030C948C030C948C0304
:100040000C94CC090C948C030C948A0A0C94640ACA
:100050000C948C030C948C030C948C030C948C03E4
:100060000C948C030C948C030000000023002600E9
:100070002900540154015401540154015401060053
:10008000060002000200540154016C006C006C0078
:10009000540154015401540154015401600068009A
:1000A0005C0064005401540100006600040062001A
:1000B0006E0054015401540154015401540154017F
:1000C000540154015401540162005401540154017B
:1000D00054015000200010003000080028001800D3
:1000E0003800400048005A00460058004E005600B4
:1000F0005401540122002E003600320034000A0060
:100100002A001A0044003A0042004A003E001E0045
:100110004C00540024000C0012002C003C000E0087
:10012000140016001C002600520054015401540112
:100130005401540154015401540154015401540117
:100140005401540154015401540154015401540107
:1001500054015401540154015401540154015401F7
:1001600054015401540154015401540154015401E7
:1001700054015401540154015401540154015401D7
:1001800054015401540154015401540154015401C7
:10019000540100000000000000000000000000000A
:1001A000000054015401540154015401540106004B
:1001B000060002000200540154016C006C006C0047
:1001C0005401540154015401540154016000680069
:1001D0005C006400540154010000660004006200E9
:1001E0006E0054015401540154015401540154014E
:1001F000540154015401540162005401540154014A
:1002000054015000200010003000080028001800A1
:100210003800400048005A00460058004E00560082
:100220005401540122002E003600320034000A002E
:100230002A001A0044003A0042004A003E001E0014
:100240004C00540024000C0012002C003C000E0056
:10025000140016001C0026005200540154015401E1
:1002600054015401540154015401540154015401E6
:1002700054015401540154015401540154015401D6
:1002800054015401540154015401540154015401C6
:1002900054015401540154015401540154015401B6
:1002A00054015401540154015401540154015401A6
:1002B0005401540154015401540154015401540196
:1002C00054010000000000000000000000000000D9
:1002D00000005401540154015401540154015401CB
:1002E0005401540154015401540154015401540166
:1002F0005401540154015401540154015401540156
:100300005401540154015401540154015401540145
:100310005401540154015401540154015401540135
:100320005401540154015401540154015401540125
:100330005401540154015401540154015401540115
:100340005401540154015401540154015401540105
:1003500054015401540154015401540154015401F5
:1003600054015401540154015401540154015401E5
:1003700054015401540154015401540154015401D5
:1003800054015401540154015401540154015401C5
:1003900054015401540154015401540154015401B5
:1003A00054015401540154015401540154015401A5
:1003B0005401540154015401540154015401540195
:1003C0005401540154015401540154015401540185
:1003D0005401540154015401540154015401540175
:1003E0005401540154015401540154015401540165
:1003F00054010000000000000000000000000000A8
:100400000000540154015401540154015401540199
:100410005401540154015401540154015401540134
:100420005401540154015401540154015401540124
:100430005401540154015401540154015401540114
:100440005401540154015401540154015401540104
:1004500054015401540154015401540154015401F4
:1004600054015401540154015401540154015401E4
:1004700054015401540154015401540154015401D4
:1004800054015401540154015401540154015401C4
:1004900054015401540154015401540154015401B4
:1004A00054015401540154015401540154015401A4
:1004B0005401540154015401540154015401540194
:1004C0005401540154015401540154015401540184
:1004D0005401540154015401540154015401540174
:1004E0005401540154015401540154015401540164
:1004F0005401540154015401540154015401540154
:100500005401540154015401540154015401540143
:100510005401540154015401540154015401540133
:100520005401000000000000000000000000000076
:10053000000000000000240027002A000000000046
:10054000250028002B00040404040404040402020F
:100550000202020203030303030301020408102042
:10056000408001020408102001020408102000004D
:100570000008000201000003040700000000000062
:1005800000001912181415BB161117131A40402039
:10059000200804020277017E02580312065907144C
:1005A00008110A8410761B661C0D1D5A1E291F7027
:1005B00020692172227A236B24732574266C277597
:1005C000287D29712A792C7B2D7C2E0F3F453016F2
:1005D000311E32263325342E3536363D373E3846E9
:1005E00039523A413B4E3C493D4A3E0E401C413255
:1005F000422143234424452B463447334843493B57
:100600004A424B4B4C3A4D314E444F4D5015512DB3
:10061000521B532C543C552A561D57225835591AF3
:100620005A4C5B5D5C545D5B5E555F618B0561069A
:100630006204630C6403650B6683670A68016909D9
:100640006A786B076C086D106E186F207028713017
:1006500072387340744875507657775F786D605183
:100660009113926A9364946795F296F197639862F6
:10067000995FA012BB7C041409110B1F0C270D2FCE
:100680000E7E0F6C1169127D137A146B157416753A
:100690001772187019711A5A2B4A2F4D79157A3B17
:1006A0007B347C237D327E217F508048812B8240A9
:1006B0008310843A853886308728882089188A37BD
:1006C0008C3F8D5E9000BC0A11241FBECFEFD8E096
:1006D000DEBFCDBF11E0A0E0B1E0E2E5F9E102C08C
:1006E00005900D92A831B107D9F721E0A8E1B1E05A
:1006F00001C01D92AF3FB207E1F713E0C4E6D3E0BB
:1007000004C02197FE010E94A10CC336D107C9F78E
:100710000E94E90A0C94A70C0C9400008230D8F4D3
:10072000E82FF0E0EE0FFF1FEF5FFE4F2AE537E006
:1007300031832083813041F0809169008C7F826019
:1007400080936900E89A089580916900837F8860AA
:1007500080936900E99A0895FC01538D448D252FFB
:1007600030E0842F90E0821B930B541710F0CF964B
:10077000089501970895FC01918D828D981761F07D
:10078000A28DAE0FBF2FB11D5D968C91928D9F5F94
:100790009F73928F90E008958FEF9FEF0895FC0173
:1007A000918D828D981731F0828DE80FF11D858D26
:1007B00090E008958FEF9FEF0895FC01918D228DB9
:1007C000892F90E0805C9F4F821B91098F7399273E
:1007D0000895FC01A48DA80FB92FB11DA35ABF4FD6
:1007E0002C91848D90E001968F739927848FA68930
:1007F000B7892C93A089B1898C91837080648C9384
:10080000938D848D981306C00288F389E02D808132
:100810008F7D80830895EF92FF920F931F93CF9364
:10082000DF93EC0181E0888F9B8D8C8D98131AC02B
:10083000E889F989808185FF15C09FB7F894EE8912
:10084000FF896083E889F98980818370806480836F
:100850009FBF81E090E0DF91CF911F910F91FF90BA
:10086000EF900895F62E0B8D10E00F5F1F4F0F7362
:100870001127E02E8C8D8E110CC00FB607FCFACF1D
:10088000E889F989808185FFF5CFCE010E94E903CF
:10089000F1CFEB8DEC0FFD2FF11DE35AFF4FF082EE
:1008A0009FB7F8940B8FEA89FB8980818062CFCF54
:1008B000CF93DF93EC01888D8823B9F0AA89BB8997
:1008C000E889F9898C9185FD03C0808186FD0DC082
:1008D0000FB607FCF7CF8C9185FFF2CF808185FFA3
:1008E000EDCFCE010E94E903E9CFDF91CF910895CA
:1008F00082E691E00E94DD0321E0892B09F420E0EB
:10090000822F089580E090E0892B29F00E947804DE
:1009100081110C9400000895833081F028F4813017
:1009200099F08230A9F008958730A9F08830C9F095
:100930008430B1F4809180008F7D03C0809180006D
:100940008F7780938000089584B58F7784BD089554
:1009500084B58F7DFBCF8091B0008F778093B000FE
:1009600008958091B0008F7DF9CF1F93CF93DF93CF
:10097000282F30E0F901E259FA4F8491F901E65A43
:10098000FA4FD491F901EA5BFA4FC491CC23A9F054
:10099000162F81110E948C04EC2FF0E0EE0FFF1F48
:1009A000E45CFA4FA591B4918FB7F894EC911111D2
:1009B00008C0D095DE23DC938FBFDF91CF911F91CC
:1009C0000895DE2BF8CFCF93DF9390E0FC01E65A39
:1009D000FA4F24918A5B9A4FFC0184918823D1F0CD
:1009E00090E0880F991FFC01EE5CFA4FA591B4913D
:1009F000FC01E45CFA4FC591D491623071F49FB769
:100A0000F8943C91822F809583238C93E8812E2B40
:100A100028839FBFDF91CF9108958FB7F894EC9111
:100A20002E2B2C938FBFF6CF3FB7F89480913B01CC
:100A300090913C01A0913D01B0913E0126B5A89B4B
:100A400005C02F3F19F00196A11DB11D3FBFBA2F60
:100A5000A92F982F8827BC01CD01620F711D811D20
:100A6000911D42E0660F771F881F991F4A95D1F7A5
:100A700008950895AF92BF92CF92DF92EF92FF92C6
:100A80000F931F93CF93DF936C017B018B01040FB6
:100A9000151FEB015E01AE18BF08C017D10759F052
:100AA0006991D601ED91FC910190F081E02DC60194
:100AB0000995892B79F7C501DF91CF911F910F918E
:100AC000FF90EF90DF90CF90BF90AF90089510927D
:100AD0002C0110922B0110922A01109229011092E0
:100AE0005701109256011092280110924501109260
:100AF000400110922701089590912C019F5F96303C
:100B000008F090E020912B01291751F0E92FF0E037
:100B1000EF5DFE4F808390932C0181E090E008957B
:100B20008CEF9FEF0895CF93DF9380932001809304
:100B30001F011092280110921E0180912701806CE4
:100B40008093270180912A0187FD0DC080912A01A1
:100B500080FF09C08091290180931D0180912701A8
:100B600080618093270180912D01823009F441C07A
:100B7000833061F4E99881E090E0880F991FFC01CF
:100B8000EF5FFE4F89E395E091838083D0912E0142
:100B900061E08D2F0E94B50461E08D2F0E94E30477
:100BA000C0912D0161E08C2F0E94B50461E08C2F73
:100BB0000E94E30483E290E00197F1F760E08C2F5C
:100BC0000E94B5048BEE90E00197F1F760E08D2F65
:100BD0000E94B50462E08C2F0E94E30480E0C230E2
:100BE00021F08FEFC33009F481E0DF91CF910C94B5
:100BF0008E03E89890E080E0C0CF90912B01809127
:100C00002C01891799F180912A01816080932A0132
:100C100080912A0187FD2DC08091270187FD29C081
:100C2000109229012FEF3FEF9F5F963008F090E080
:100C3000E92FF0E0EF5DFE4F2F3F320771F4208186
:100C400030E090932B0180912C018913EDCF822FFE
:100C50000E94930581E090E0089580818B3BB9F775
:100C6000809129018F5F80932901EBCF8EEF9FEF59
:100C700008958AE79FEF08958DEE0E947C058BEB27
:100C80000E947C05809140010E947C058BEB0E94B4
:100C90007C05892B11F00C94FD0508950F931F938B
:100CA000CF93DF931091610180916001181B17FDB4
:100CB0001C5F01E0133064F580915701A09156014B
:100CC0008A1B87FD885F882319F180915701A81737
:100CD000F9F0AF5FA83008F0A0E0A0935601B0E0B3
:100CE000AA0FBB1FAA5BBE4FCD91DC9111978D91CE
:100CF0009C9192FDC0C02C2FCA3A20F08C2F815FAE
:100D0000823010F494FF0AC0DD27209709F0B5C0A7
:100D1000812FDF91CF911F910F910895809145010F
:100D200095FF18C0806880934501D0E0C0E093FF34
:100D30001EC0FE01ED58F94FE4912E130DC0CC58A2
:100D4000D94FFE01C491D0E02097D1F480914501A4
:100D5000D82BDBCF8F77E7CF2296C235D10549F765
:100D6000D0E0C0E0F3CF2296CE3DD105C9F3FE011D
:100D7000EB56FA4FE4912E13F6CFCA56DA4FE1CF75
:100D800080914501FE01C430D10508F049C0EF5BF8
:100D9000FE4F87FF04C01082CBEBD0E01BC09081D8
:100DA0009130D1F30083C230D105A1F1C330D10518
:100DB00041F182E090914001292F282369F120918F
:100DC0004501809589238093400120682093450147
:100DD0000E943C068091450187FF04C090913F012D
:100DE00093FD65C09E01205231092134310508F47C
:100DF00040C0CB38D10509F43CC0816080934501E7
:100E0000A5CF84FF05C08F7E8093450184E0D2CFBB
:100E10008061FACF81E0CECF892B80934001D8CF7B
:100E20003697E830F10598F4E357FA4FE49187FFDD
:100E300005C0E095E823E0934501CCCF9E2F982391
:100E400021F090913F0197FDA7CFE82BF4CFFE0151
:100E5000B097EB30F10508F0BDCF9091400191FFC4
:100E600002C086FFB7CFEE57FA4FE491CE2FD0E005
:100E7000B1CF8E7FC3CFC6E0D0E0CE0199278B3BA8
:100E8000910509F417CF892B09F414CF80916101E2
:100E90008F5F84300CF080E0E82FEE0FFF0BE85AF4
:100EA000FE4FD183C083809361011F5F03CFCBEBE3
:100EB000D0E0E3CFCF92DF92EF92FF920F931F9398
:100EC000CF93DF938091270186FF74C08091280122
:100ED0008F5F80932801809128018A3048F4823006
:100EE00098F560E0813009F448C010922801C4C030
:100EF0008B3009F44EC0E8F18C30B9F780911F01B6
:100F00008E3E69F080911F018E3F49F080911F0154
:100F1000809318018091270182608093270180913E
:100F200027018F7B8093270180912A0187FF3EC094
:100F300080912A018F7780932A018091270184FD77
:100F4000D4CF0E94FD05D1CFC0912001C1706C2F7C
:100F500080912E010E94B50480911E01C80FC0939C
:100F60001E018091200190E0959587958093200146
:100F700083C060911E016095617080912E01DF91A8
:100F8000CF911F910F91FF90EF90DF90CF900C9435
:100F9000B50462E080912E01DF91CF911F910F91F6
:100FA000FF90EF90DF90CF900C94E30480912A01A2
:100FB0008E7FC1CF20912E0130E0F901E259FA4F26
:100FC0008491F901E65AFA4FD491F901EA5BFA4F9C
:100FD000C491CC2379F081110E948C04EC2FF0E0B5
:100FE000EE0FFF1FE859FF4FA591B491EC91ED234F
:100FF00081E009F480E09FB7F89440913701509167
:1010000038016091390170913A019FBF0091190137
:1010100010911A0120911B0130911C016A017B0182
:10102000C01AD10AE20AF30A970186010B3F1105A3
:101030002105310520F010922801109220014093E3
:10104000190150931A0160931B0170931C01909138
:1010500028019F5F90932801909128019A30A8F46D
:10106000923028F5913009F040CF10921E01809106
:101070002701806880932701DF91CF911F910F9105
:10108000FF90EF90DF90CF9008959A3019F19B3048
:1010900009F02BCF80911E018D3F48F18EEF0E9409
:1010A000930580912A01806880932A011ECF909138
:1010B0001E01980F90931E012091200130E035957C
:1010C00027952093200190E0811190E880912001E4
:1010D000892B4CCF90911E01917090931E0190919D
:1010E0001E018913C9CF8DEF80931E01C5CF80915A
:1010F00020018E3F29F0909127019D7F9093270139
:101100009091270194FF02C0803F70F090912701D9
:1011100092FD91C08E3E09F477C0E8F48A3A09F452
:101120007FC020F4882359F186E02CC0803E09F46A
:101130007BC0813EC9F78091270182FD1AC087E0FC
:1011400080931D0180912701846080932701809105
:1011500027018F7D0CC08C3F09F44EC060F4803FA6
:1011600019F781E080931D018091270180628093AF
:10117000270180E007C08E3FA9F18F3FA9F60E94AA
:1011800067058CE081FF05C090911D0191509093FF
:101190001D0190911D01191614F482FF1EC090913B
:1011A00057019F5F983008F090E020915601291771
:1011B000A1F020912001E92FF0E030E0EE0FFF1FB9
:1011C000EA5BFE4F318320834091270120813181EA
:1011D000342B3183208390935701807171F180917A
:1011E0001F015DCF8091270181FFC3CF809118013E
:1011F00080931F0180E1C6CF10921D01109227013C
:1012000010922A018EE0BECF9091270191FF0AC073
:10121000909118019E3E31F080931F0184E1B2CF7E
:1012200010921D0184E0AECF81E080931D0180917A
:10123000270188609CCF82E0A5CF80911D01181600
:101240000CF453CE80912701837C80932701109268
:101250001D01809127018F778093270172CE0F9314
:101260001F93CF93DF938C0108531109EC0168970A
:101270009C012F7D285131092830310578F461E037
:101280008BE00E94B504C03AD105A0F060E08BE08D
:10129000DF91CF911F910F910C94B5049C012054C4
:1012A00031092830310510F5EC01E09761E08BE061
:1012B0000E94B50405E010E0C8010597BE0102C018
:1012C000769567958A95E2F76170802F0E94B50444
:1012D0000F5F1F4F0B30110579F761E084E00E942A
:1012E000B50460E084E00E94B504D0CF9C0128568C
:1012F000310961E028303105F8F09C0120563109B0
:101300002830310508F4BBCF9C012855310928301D
:10131000310550F2205F3F4F2830310520F4EC01B9
:10132000609760E0C4CF9C0120553109EC01283062
:10133000310508F0A8CF60E08BE00E94B504E80119
:10134000A2CF60E082E00E94B50461E08DE00E94DF
:10135000B50461E084E00E94B50460E08DE00E9485
:10136000B50460E084E00E94B50461E082E00E9480
:10137000B50410924001809145018F7E8093450114
:101380000E943C061092310110922F011092300100
:1013900081E08093000108951F920F920FB60F9283
:1013A00011242F933F938F939F93AF93BF9380917B
:1013B000370190913801A0913901B0913A013091F3
:1013C000360123E0230F2D3758F50196A11DB11DDD
:1013D000209336018093370190933801A09339010F
:1013E000B0933A0180913B0190913C01A0913D0165
:1013F000B0913E010196A11DB11D80933B019093D8
:101400003C01A0933D01B0933E01BF91AF919F91EC
:101410008F913F912F910F900FBE0F901F901895B5
:1014200026E8230F0296A11DB11DD2CF1F920F9265
:101430000FB60F9211242F933F934F935F936F93A7
:101440007F938F939F93AF93BF93EF93FF93E0911D
:101450000301F09104010995FF91EF91BF91AF91C4
:101460009F918F917F916F915F914F913F912F91BC
:101470000F900FBE0F901F9018951F920F920FB6EE
:101480000F9211242F933F934F935F936F937F930A
:101490008F939F93AF93BF93EF93FF93E0910101DD
:1014A000F09102010995FF91EF91BF91AF919F914A
:1014B0008F917F916F915F914F913F912F910F90FD
:1014C0000FBE0F901F9018951F920F920FB60F929C
:1014D00011242F933F934F935F936F937F938F9339
:1014E0009F93AF93BF93EF93FF9382E691E00E94A7
:1014F000E903FF91EF91BF91AF919F918F917F9100
:101500006F915F914F913F912F910F900FBE0F9070
:101510001F9018951F920F920FB60F9211242F93C0
:101520008F939F93EF93FF93E0917201F09173017A
:101530008081E0917801F091790182FD1BC090815A
:1015400080917B018F5F8F7320917C01821741F026
:10155000E0917B01F0E0EE59FE4F958F80937B0187
:10156000FF91EF919F918F912F910F900FBE0F9050
:101570001F9018958081F4CFE2E6F1E01382128289
:1015800088EE93E0A0E0B0E084839583A683B783E0
:1015900089E091E09183808385EC90E09587848752
:1015A00084EC90E09787868780EC90E0918B808B2D
:1015B00081EC90E0938B828B82EC90E0958B848B16
:1015C00086EC90E0978B868B118E128E138E148E84
:1015D0000895789484B5826084BD84B5816084BDAB
:1015E00085B5826085BD85B5816085BD80916E00C1
:1015F000816080936E0010928100809181008260F2
:10160000809381008091810081608093810080912E
:1016100080008160809380008091B100846080931D
:10162000B1008091B00081608093B00080917A0019
:10163000846080937A0080917A00826080937A003F
:1016400080917A00816080937A0080917A0080682E
:1016500080937A001092C1000E9467058CE080930D
:101660002E0183E080932D0162E00E94E30462E09A
:101670008CE00E94E30481E00E948E0380913F0190
:101680008068877F80933F0182E790E090933401E8
:1016900080933301C5E061E08C2F0E94E304CF5FAB
:1016A000CB30C9F761E08BE00E94E30461E084E0A5
:1016B0000E94E30461E082E00E94E30461E08DE0C7
:1016C0000E94E30461E082E00E94E30461E08EE0B6
:1016D0000E94E30460E08EE00E94B5040E94A1092C
:1016E00000E010E00E944E06882309F459C00E94D1
:1016F0004E0630E020E0882379F0E0916001EF5F52
:10170000E43008F0E0E0E0936001F0E0EE0FFF1F4E
:10171000E85AFE4F2081318130933501422F80916C
:101720000001D0E0C0E0823099F450913501809101
:10173000330190913401B9017727660F771FFC01BF
:1017400056FF3AC0E057FC4FE60FF71FC591D49102
:1017500080910001813089F480913501E09133015D
:10176000F09134013327220F331F86FF02C0E05D62
:10177000FE4FE20FF31FC591D4914A3F09F486C092
:10178000443011F58091350187FF19C01092320164
:1017900060E08EE00E94B50461E082E00E94B50442
:1017A0000115110509F49ECF0E947804882309F4DD
:1017B00099CF0E94000096CFE05AFD4FC5CF81E03F
:1017C0008093320161E0E5CF4C3679F40E94A109A3
:1017D000C4E5D1E08091350187FD5AC082E0809355
:1017E000000181E08093400149C04330D9F58091E8
:1017F000310191E089278093310161E082E00E940C
:10180000B50486E090E00E942F090E9414054B0168
:101810005C0184E6C82ED12CE12CF12C0E94140529
:10182000681979098A099B09683E73408105910509
:10183000A8F321E0C21AD108E108F10888EE880E69
:1018400083E0981EA11CB11CC114D104E104F10471
:1018500029F760E082E00E94B50486E090E00E94F3
:101860002F099ACF4B3609F062C08091350187FD70
:101870000FC081E0809300011092400180914501EA
:101880008F7E809345010E943C0602C0C4E5D1E0F2
:10189000C43581E0D80709F47FCFC03AD10550F1B3
:1018A000C05AD10980913001811104C080912F016B
:1018B00061E0811160E082E00E94B50486E090E082
:1018C0000E942F0961E082E00E94B504CE010E94CF
:1018D0002F098091350187FF0DC060912F0182E0B3
:1018E0000E94B50486E090E00E942F0961E082E04A
:1018F0000E94B5048091350186FF08C0C630D1052D
:1019000029F481E08093300180932F01809135018B
:1019100087FF11C060E082E00E94B504C630D105A7
:1019200051F41092300110922F01CE0198CF4C3615
:1019300009F450CFADCFC43521E0D20709F42CCF44
:10194000F4CFEE0FFF1F0590F491E02D0994F89469
:02195000FFCFC7
:101952000139053905000000000B043A05AC0358B3
:0819620004DD03BB03CF030009
:00000001FF
